{
  "contractName": "CarSupplyChain",
  "abi": [
    {
      "inputs": [],
      "name": "carCount",
      "outputs": [
        {
          "internalType": "uint256",
          "name": "",
          "type": "uint256"
        }
      ],
      "stateMutability": "view",
      "type": "function"
    },
    {
      "inputs": [
        {
          "internalType": "uint256",
          "name": "",
          "type": "uint256"
        }
      ],
      "name": "cars",
      "outputs": [
        {
          "internalType": "uint256",
          "name": "id",
          "type": "uint256"
        },
        {
          "internalType": "string",
          "name": "model",
          "type": "string"
        },
        {
          "internalType": "address",
          "name": "manufacturer",
          "type": "address"
        },
        {
          "internalType": "address",
          "name": "supplier",
          "type": "address"
        },
        {
          "internalType": "address",
          "name": "dealer",
          "type": "address"
        },
        {
          "internalType": "uint256",
          "name": "timestamp",
          "type": "uint256"
        }
      ],
      "stateMutability": "view",
      "type": "function"
    },
    {
      "inputs": [
        {
          "internalType": "string",
          "name": "_model",
          "type": "string"
        }
      ],
      "name": "registerCar",
      "outputs": [],
      "stateMutability": "nonpayable",
      "type": "function"
    },
    {
      "inputs": [
        {
          "internalType": "uint256",
          "name": "_id",
          "type": "uint256"
        },
        {
          "internalType": "address",
          "name": "_newOwner",
          "type": "address"
        }
      ],
      "name": "transferOwnership",
      "outputs": [],
      "stateMutability": "nonpayable",
      "type": "function"
    }
  ],
  "bytecode": "0x608060405234801561000f575f80fd5b50610caa8061001d5f395ff3fe608060405234801561000f575f80fd5b506004361061004a575f3560e01c806329507f731461004e578063297a1f561461006a578063875e89a614610088578063f7746e36146100a4575b5f80fd5b610068600480360381019061006391906105cc565b6100d9565b005b610072610274565b60405161007f9190610619565b60405180910390f35b6100a2600480360381019061009d919061076e565b61027a565b005b6100be60048036038101906100b991906107b5565b610414565b6040516100d096959493929190610869565b60405180910390f35b5f805f8481526020019081526020015f209050806003015f9054906101000a900473ffffffffffffffffffffffffffffffffffffffff1673ffffffffffffffffffffffffffffffffffffffff163373ffffffffffffffffffffffffffffffffffffffff1614806101975750806004015f9054906101000a900473ffffffffffffffffffffffffffffffffffffffff1673ffffffffffffffffffffffffffffffffffffffff163373ffffffffffffffffffffffffffffffffffffffff16145b6101d6576040517f08c379a00000000000000000000000000000000000000000000000000000000081526004016101cd90610919565b60405180910390fd5b806003015f9054906101000a900473ffffffffffffffffffffffffffffffffffffffff1673ffffffffffffffffffffffffffffffffffffffff163373ffffffffffffffffffffffffffffffffffffffff160361026f5781816004015f6101000a81548173ffffffffffffffffffffffffffffffffffffffff021916908373ffffffffffffffffffffffffffffffffffffffff1602179055505b505050565b60015481565b60015f81548092919061028c90610964565b91905055506040518060c0016040528060015481526020018281526020013373ffffffffffffffffffffffffffffffffffffffff1681526020015f73ffffffffffffffffffffffffffffffffffffffff1681526020015f73ffffffffffffffffffffffffffffffffffffffff168152602001428152505f8060015481526020019081526020015f205f820151815f015560208201518160010190816103319190610ba5565b506040820151816002015f6101000a81548173ffffffffffffffffffffffffffffffffffffffff021916908373ffffffffffffffffffffffffffffffffffffffff1602179055506060820151816003015f6101000a81548173ffffffffffffffffffffffffffffffffffffffff021916908373ffffffffffffffffffffffffffffffffffffffff1602179055506080820151816004015f6101000a81548173ffffffffffffffffffffffffffffffffffffffff021916908373ffffffffffffffffffffffffffffffffffffffff16021790555060a0820151816005015590505050565b5f602052805f5260405f205f91509050805f015490806001018054610438906109d8565b80601f0160208091040260200160405190810160405280929190818152602001828054610464906109d8565b80156104af5780601f10610486576101008083540402835291602001916104af565b820191905f5260205f20905b81548152906001019060200180831161049257829003601f168201915b505050505090806002015f9054906101000a900473ffffffffffffffffffffffffffffffffffffffff1690806003015f9054906101000a900473ffffffffffffffffffffffffffffffffffffffff1690806004015f9054906101000a900473ffffffffffffffffffffffffffffffffffffffff16908060050154905086565b5f604051905090565b5f80fd5b5f80fd5b5f819050919050565b6105518161053f565b811461055b575f80fd5b50565b5f8135905061056c81610548565b92915050565b5f73ffffffffffffffffffffffffffffffffffffffff82169050919050565b5f61059b82610572565b9050919050565b6105ab81610591565b81146105b5575f80fd5b50565b5f813590506105c6816105a2565b92915050565b5f80604083850312156105e2576105e1610537565b5b5f6105ef8582860161055e565b9250506020610600858286016105b8565b9150509250929050565b6106138161053f565b82525050565b5f60208201905061062c5f83018461060a565b92915050565b5f80fd5b5f80fd5b5f601f19601f8301169050919050565b7f4e487b71000000000000000000000000000000000000000000000000000000005f52604160045260245ffd5b6106808261063a565b810181811067ffffffffffffffff8211171561069f5761069e61064a565b5b80604052505050565b5f6106b161052e565b90506106bd8282610677565b919050565b5f67ffffffffffffffff8211156106dc576106db61064a565b5b6106e58261063a565b9050602081019050919050565b828183375f83830152505050565b5f61071261070d846106c2565b6106a8565b90508281526020810184848401111561072e5761072d610636565b5b6107398482856106f2565b509392505050565b5f82601f83011261075557610754610632565b5b8135610765848260208601610700565b91505092915050565b5f6020828403121561078357610782610537565b5b5f82013567ffffffffffffffff8111156107a05761079f61053b565b5b6107ac84828501610741565b91505092915050565b5f602082840312156107ca576107c9610537565b5b5f6107d78482850161055e565b91505092915050565b5f81519050919050565b5f82825260208201905092915050565b5f5b838110156108175780820151818401526020810190506107fc565b5f8484015250505050565b5f61082c826107e0565b61083681856107ea565b93506108468185602086016107fa565b61084f8161063a565b840191505092915050565b61086381610591565b82525050565b5f60c08201905061087c5f83018961060a565b818103602083015261088e8188610822565b905061089d604083018761085a565b6108aa606083018661085a565b6108b7608083018561085a565b6108c460a083018461060a565b979650505050505050565b7f4e6f7420617574686f72697a65640000000000000000000000000000000000005f82015250565b5f610903600e836107ea565b915061090e826108cf565b602082019050919050565b5f6020820190508181035f830152610930816108f7565b9050919050565b7f4e487b71000000000000000000000000000000000000000000000000000000005f52601160045260245ffd5b5f61096e8261053f565b91507fffffffffffffffffffffffffffffffffffffffffffffffffffffffffffffffff82036109a05761099f610937565b5b600182019050919050565b7f4e487b71000000000000000000000000000000000000000000000000000000005f52602260045260245ffd5b5f60028204905060018216806109ef57607f821691505b602082108103610a0257610a016109ab565b5b50919050565b5f819050815f5260205f209050919050565b5f6020601f8301049050919050565b5f82821b905092915050565b5f60088302610a647fffffffffffffffffffffffffffffffffffffffffffffffffffffffffffffffff82610a29565b610a6e8683610a29565b95508019841693508086168417925050509392505050565b5f819050919050565b5f610aa9610aa4610a9f8461053f565b610a86565b61053f565b9050919050565b5f819050919050565b610ac283610a8f565b610ad6610ace82610ab0565b848454610a35565b825550505050565b5f90565b610aea610ade565b610af5818484610ab9565b505050565b5b81811015610b1857610b0d5f82610ae2565b600181019050610afb565b5050565b601f821115610b5d57610b2e81610a08565b610b3784610a1a565b81016020851015610b46578190505b610b5a610b5285610a1a565b830182610afa565b50505b505050565b5f82821c905092915050565b5f610b7d5f1984600802610b62565b1980831691505092915050565b5f610b958383610b6e565b9150826002028217905092915050565b610bae826107e0565b67ffffffffffffffff811115610bc757610bc661064a565b5b610bd182546109d8565b610bdc828285610b1c565b5f60209050601f831160018114610c0d575f8415610bfb578287015190505b610c058582610b8a565b865550610c6c565b601f198416610c1b86610a08565b5f5b82811015610c4257848901518255600182019150602085019450602081019050610c1d565b86831015610c5f5784890151610c5b601f891682610b6e565b8355505b6001600288020188555050505b50505050505056fea26469706673582212207f74c25ae79ede8029b299a000437a275e3c9f38d3a95a859ea1136ac8497db164736f6c63430008150033",
  "immutableReferences": {},
  "source": "pragma solidity ^0.8.0;\n\ncontract CarSupplyChain {\n    struct Car {\n        uint256 id;\n        string model;\n        address manufacturer;\n        address supplier;\n        address dealer;\n        uint256 timestamp;\n    }\n\n    mapping(uint256 => Car) public cars;\n    uint256 public carCount;\n\n    function registerCar(string memory _model) public {\n        carCount++;\n        cars[carCount] = Car(carCount, _model, msg.sender, address(0), address(0), block.timestamp);\n    }\n\n    function transferOwnership(uint256 _id, address _newOwner) public {\n        Car storage car = cars[_id];\n        require(msg.sender == car.supplier || msg.sender == car.dealer, \"Not authorized\");\n        if (msg.sender == car.supplier) {\n            car.dealer = _newOwner;\n        }\n    }\n}\n",
  "sourcePath": "/workspaces/supply-chain-blockchain/server/contracts/CarSupplyChain.sol",
  "compiler": {
    "name": "solc",
    "version": "0.8.21+commit.d9974bed.Emscripten.clang"
  },
  "schemaVersion": "3.4.16",
  "updatedAt": "2024-07-28T10:24:01.690Z",
  "devdoc": {
    "kind": "dev",
    "methods": {},
    "version": 1
  },
  "userdoc": {
    "kind": "user",
    "methods": {},
    "version": 1
  }
}