{
  "contractName": "VehicleSupplyChain",
  "abi": [
    {
      "inputs": [],
      "name": "vehicleCount",
      "outputs": [
        {
          "internalType": "uint256",
          "name": "",
          "type": "uint256"
        }
      ],
      "stateMutability": "view",
      "type": "function"
    },
    {
      "inputs": [
        {
          "internalType": "uint256",
          "name": "",
          "type": "uint256"
        }
      ],
      "name": "vehicles",
      "outputs": [
        {
          "internalType": "string",
          "name": "brand",
          "type": "string"
        },
        {
          "internalType": "address",
          "name": "owner",
          "type": "address"
        },
        {
          "internalType": "bool",
          "name": "exists",
          "type": "bool"
        }
      ],
      "stateMutability": "view",
      "type": "function"
    },
    {
      "inputs": [
        {
          "internalType": "string",
          "name": "_brand",
          "type": "string"
        }
      ],
      "name": "registerVehicle",
      "outputs": [],
      "stateMutability": "nonpayable",
      "type": "function"
    },
    {
      "inputs": [
        {
          "internalType": "uint256",
          "name": "_id",
          "type": "uint256"
        },
        {
          "internalType": "address",
          "name": "_newOwner",
          "type": "address"
        }
      ],
      "name": "transferVehicle",
      "outputs": [],
      "stateMutability": "nonpayable",
      "type": "function"
    },
    {
      "inputs": [
        {
          "internalType": "uint256",
          "name": "_id",
          "type": "uint256"
        }
      ],
      "name": "getVehicleOwner",
      "outputs": [
        {
          "internalType": "address",
          "name": "",
          "type": "address"
        }
      ],
      "stateMutability": "view",
      "type": "function"
    }
  ],
  "bytecode": "0x608060405234801561000f575f80fd5b50610ca78061001d5f395ff3fe608060405234801561000f575f80fd5b5060043610610054575f3560e01c80626bd2af1461005857806375c0ad2b146100745780639970493714610090578063b8ba95fa146100ae578063e185dc90146100e0575b5f80fd5b610072600480360381019061006d9190610607565b610110565b005b61008e600480360381019061008991906106db565b6101ed565b005b610098610342565b6040516100a59190610728565b60405180910390f35b6100c860048036038101906100c39190610741565b610348565b6040516100d79392919061080f565b60405180910390f35b6100fa60048036038101906100f59190610741565b61041f565b604051610107919061084b565b60405180910390f35b60015f81548092919061012290610891565b919050555060405180606001604052808281526020013373ffffffffffffffffffffffffffffffffffffffff168152602001600115158152505f8060015481526020019081526020015f205f820151815f0190816101809190610ad2565b506020820151816001015f6101000a81548173ffffffffffffffffffffffffffffffffffffffff021916908373ffffffffffffffffffffffffffffffffffffffff16021790555060408201518160010160146101000a81548160ff02191690831515021790555090505050565b5f808381526020019081526020015f2060010160149054906101000a900460ff1661024d576040517f08c379a000000000000000000000000000000000000000000000000000000000815260040161024490610beb565b60405180910390fd5b3373ffffffffffffffffffffffffffffffffffffffff165f808481526020019081526020015f206001015f9054906101000a900473ffffffffffffffffffffffffffffffffffffffff1673ffffffffffffffffffffffffffffffffffffffff16146102ed576040517f08c379a00000000000000000000000000000000000000000000000000000000081526004016102e490610c53565b60405180910390fd5b805f808481526020019081526020015f206001015f6101000a81548173ffffffffffffffffffffffffffffffffffffffff021916908373ffffffffffffffffffffffffffffffffffffffff1602179055505050565b60015481565b5f602052805f5260405f205f91509050805f01805461036690610905565b80601f016020809104026020016040519081016040528092919081815260200182805461039290610905565b80156103dd5780601f106103b4576101008083540402835291602001916103dd565b820191905f5260205f20905b8154815290600101906020018083116103c057829003601f168201915b505050505090806001015f9054906101000a900473ffffffffffffffffffffffffffffffffffffffff16908060010160149054906101000a900460ff16905083565b5f805f8381526020019081526020015f2060010160149054906101000a900460ff16610480576040517f08c379a000000000000000000000000000000000000000000000000000000000815260040161047790610beb565b60405180910390fd5b5f808381526020019081526020015f206001015f9054906101000a900473ffffffffffffffffffffffffffffffffffffffff169050919050565b5f604051905090565b5f80fd5b5f80fd5b5f80fd5b5f80fd5b5f601f19601f8301169050919050565b7f4e487b71000000000000000000000000000000000000000000000000000000005f52604160045260245ffd5b610519826104d3565b810181811067ffffffffffffffff82111715610538576105376104e3565b5b80604052505050565b5f61054a6104ba565b90506105568282610510565b919050565b5f67ffffffffffffffff821115610575576105746104e3565b5b61057e826104d3565b9050602081019050919050565b828183375f83830152505050565b5f6105ab6105a68461055b565b610541565b9050828152602081018484840111156105c7576105c66104cf565b5b6105d284828561058b565b509392505050565b5f82601f8301126105ee576105ed6104cb565b5b81356105fe848260208601610599565b91505092915050565b5f6020828403121561061c5761061b6104c3565b5b5f82013567ffffffffffffffff811115610639576106386104c7565b5b610645848285016105da565b91505092915050565b5f819050919050565b6106608161064e565b811461066a575f80fd5b50565b5f8135905061067b81610657565b92915050565b5f73ffffffffffffffffffffffffffffffffffffffff82169050919050565b5f6106aa82610681565b9050919050565b6106ba816106a0565b81146106c4575f80fd5b50565b5f813590506106d5816106b1565b92915050565b5f80604083850312156106f1576106f06104c3565b5b5f6106fe8582860161066d565b925050602061070f858286016106c7565b9150509250929050565b6107228161064e565b82525050565b5f60208201905061073b5f830184610719565b92915050565b5f60208284031215610756576107556104c3565b5b5f6107638482850161066d565b91505092915050565b5f81519050919050565b5f82825260208201905092915050565b5f5b838110156107a3578082015181840152602081019050610788565b5f8484015250505050565b5f6107b88261076c565b6107c28185610776565b93506107d2818560208601610786565b6107db816104d3565b840191505092915050565b6107ef816106a0565b82525050565b5f8115159050919050565b610809816107f5565b82525050565b5f6060820190508181035f83015261082781866107ae565b905061083660208301856107e6565b6108436040830184610800565b949350505050565b5f60208201905061085e5f8301846107e6565b92915050565b7f4e487b71000000000000000000000000000000000000000000000000000000005f52601160045260245ffd5b5f61089b8261064e565b91507fffffffffffffffffffffffffffffffffffffffffffffffffffffffffffffffff82036108cd576108cc610864565b5b600182019050919050565b7f4e487b71000000000000000000000000000000000000000000000000000000005f52602260045260245ffd5b5f600282049050600182168061091c57607f821691505b60208210810361092f5761092e6108d8565b5b50919050565b5f819050815f5260205f209050919050565b5f6020601f8301049050919050565b5f82821b905092915050565b5f600883026109917fffffffffffffffffffffffffffffffffffffffffffffffffffffffffffffffff82610956565b61099b8683610956565b95508019841693508086168417925050509392505050565b5f819050919050565b5f6109d66109d16109cc8461064e565b6109b3565b61064e565b9050919050565b5f819050919050565b6109ef836109bc565b610a036109fb826109dd565b848454610962565b825550505050565b5f90565b610a17610a0b565b610a228184846109e6565b505050565b5b81811015610a4557610a3a5f82610a0f565b600181019050610a28565b5050565b601f821115610a8a57610a5b81610935565b610a6484610947565b81016020851015610a73578190505b610a87610a7f85610947565b830182610a27565b50505b505050565b5f82821c905092915050565b5f610aaa5f1984600802610a8f565b1980831691505092915050565b5f610ac28383610a9b565b9150826002028217905092915050565b610adb8261076c565b67ffffffffffffffff811115610af457610af36104e3565b5b610afe8254610905565b610b09828285610a49565b5f60209050601f831160018114610b3a575f8415610b28578287015190505b610b328582610ab7565b865550610b99565b601f198416610b4886610935565b5f5b82811015610b6f57848901518255600182019150602085019450602081019050610b4a565b86831015610b8c5784890151610b88601f891682610a9b565b8355505b6001600288020188555050505b505050505050565b7f56656869636c6520646f6573206e6f742065786973742e0000000000000000005f82015250565b5f610bd5601783610776565b9150610be082610ba1565b602082019050919050565b5f6020820190508181035f830152610c0281610bc9565b9050919050565b7f596f7520617265206e6f7420746865206f776e65722e000000000000000000005f82015250565b5f610c3d601683610776565b9150610c4882610c09565b602082019050919050565b5f6020820190508181035f830152610c6a81610c31565b905091905056fea2646970667358221220c208bc66a0026fbff4f6ee376b7fb55d3ded1b7bdb968741d78aa265673e5a3c64736f6c63430008150033",
  "immutableReferences": {},
  "source": "pragma solidity ^0.8.0;\n\ncontract VehicleSupplyChain {\n    struct Vehicle {\n        string brand;\n        address owner;\n        bool exists;\n    }\n\n    mapping(uint => Vehicle) public vehicles;\n    uint public vehicleCount;\n\n    function registerVehicle(string memory _brand) public {\n        vehicleCount++;\n        vehicles[vehicleCount] = Vehicle(_brand, msg.sender, true);\n    }\n\n    function transferVehicle(uint _id, address _newOwner) public {\n        require(vehicles[_id].exists, \"Vehicle does not exist.\");\n        require(vehicles[_id].owner == msg.sender, \"You are not the owner.\");\n\n        vehicles[_id].owner = _newOwner;\n    }\n\n    function getVehicleOwner(uint _id) public view returns (address) {\n        require(vehicles[_id].exists, \"Vehicle does not exist.\");\n        return vehicles[_id].owner;\n    }\n}\n",
  "sourcePath": "/workspaces/supply-chain-blockchain/blockchain/contracts/VehicleSupplyChain.sol",
  "compiler": {
    "name": "solc",
    "version": "0.8.21+commit.d9974bed.Emscripten.clang"
  },
  "schemaVersion": "3.4.16",
  "updatedAt": "2024-08-20T10:38:00.836Z",
  "devdoc": {
    "kind": "dev",
    "methods": {},
    "version": 1
  },
  "userdoc": {
    "kind": "user",
    "methods": {},
    "version": 1
  }
}